:020000040800F2
:1000000060B00020E5030008ED030008EF030008DE
:10001000F1030008F3030008F503000800000000E6
:10002000000000000000000000000000B502000811
:10003000F9030008000000006D030008D103000868
:10004000FF030008FF030008FF030008FF03000888
:10005000FF030008FF030008FF030008FF03000878
:10006000FF030008FF030008FF030008FF03000868
:10007000FF030008FF030008FF030008FF03000858
:10008000FF030008FF030008FF030008FF03000848
:10009000FF030008FF030008FF030008FF03000838
:1000A000FF030008FF030008FF030008FF03000828
:1000B000FF030008FF030008FF030008FF03000818
:1000C000FF030008FF030008FF030008FF03000808
:1000D000FF030008FF030008FF030008FF030008F8
:1000E000FF030008FF030008FF030008FF030008E8
:1000F000FF030008FF030008FF030008FF030008D8
:10010000FF030008FF030008FF030008FF030008C7
:10011000FF030008FF030008FF030008FF030008B7
:10012000FF030008FF030008FF030008FF030008A7
:10013000FF030008FF030008FF030008FF03000897
:10014000FF030008FF030008FF030008FF03000887
:10015000FF030008FF030008FF030008FF03000877
:10016000FF030008FF030008FF030008FF03000867
:10017000FF030008FF030008FF0300080000000061
:10018000FF030008FF03000800F002F800F03CF84D
:100190000AA090E8000C82448344AAF10107DA45E2
:1001A00001D100F031F8AFF2090EBAE80F0013F0F8
:1001B000010F18BFFB1A43F001031847A0350000D8
:1001C000C0350000103A24BF78C878C1FAD8520769
:1001D00024BF30C830C144BF04680C6070470000C1
:1001E0000023002400250026103A28BF78C1FBD840
:1001F000520728BF30C148BF0B6070471FB503F0DE
:1002000053FA1FBD10B510BD00F054F91146FFF7A9
:10021000F5FF0FB400F00CF80FBC01F05BFF00F02D
:1002200005F903B4FFF7EEFF03BC00F03DF9000051
:1002300004B001F0FFFF0448002102F04FF802F083
:100240000BF800F0F3F800003C37000880F3098851
:100250007047EFF309807047684680F309880448C7
:100260000078C00714BF0220032080F31488704771
:10027000FC360008DFF818C0EFF305831B0618BF33
:100280006047EFF31483DB0708BF604700DF704768
:10029000C7230008DFF818C0EFF305831B0618BF5B
:1002A0006047EFF31483DB0708BF604700DF704748
:1002B000AD250008EFF30980816911F8021CE1BB4C
:1002C00090E80F1010B5E047BDE81040EFF3098C3F
:1002D0008CE80700214B93E80600914208BF704765
:1002E00041B91EF0100F16D11D49086820F0010019
:1002F000086010E01EF0100F06BF2CED108A0120E0
:10030000002081F825002CE9F00FC1F828C00CB4BA
:1003100002F0EEFC0CBC1A60D2F828C0BCE8F00F6A
:1003200092F8250000280EBF6FF0020E6FF0120E3B
:10033000BCEC108A8CF30988704710B5094A126822
:10034000914209D8084C54F8214090E80F10A0477A
:10035000EFF3098C8CE80F0010BD00004400002072
:1003600034EF00E0000500080005000810B502F0B9
:1003700083FBBDE81040154B93E80600914208BF8F
:100380007047EFF3098C1EF0100F06BF2CED108A9A
:100390000120002081F825002CE9F00FC1F828C0C9
:1003A0000CB402F0A5FC0CBC1A60D2F828C0BCE862
:1003B000F00F92F8250000280EBF6FF0020E6FF0CC
:1003C000120EBCEC108A8CF30988704744000020A0
:1003D00010B502F055FDCCE710B501F0F3FF02F0C7
:1003E0004FFDC6E70948804709480047FEE7FEE79A
:1003F000FEE7FEE7FEE7FEE7FEE7FEE7FEE7FEE7D5
:1004000004480549054A064B70470000B51D000821
:100410008901000860AA002060B0002060AC0020C4
:1004200060AC002000487047FCA9002010B50446CD
:10043000AFF300802046BDE81040FFF7F2BE10B5D4
:10044000203AC0F00B80B1E81850203AA0E81850CC
:10045000B1E81850A0E81850BFF4F5AF5FEA027C8D
:1004600024BFB1E81850A0E8185044BF18C918C0FC
:10047000BDE810405FEA827C24BF51F8043B40F89D
:10048000043B08BF7047D20728BF31F8023B48BF82
:1004900011F8012B28BF20F8023B48BF00F8012BC0
:1004A000704770477047704701491820ABBEFEE7A0
:1004B000260002007546FFF7B5FFAE460500694607
:1004C000534620F00700854618B020B5FFF798FF87
:1004D000BDE820404FF000064FF000074FF0000845
:1004E0004FF0000B21F00701AC46ACE8C009ACE8C6
:1004F000C009ACE8C009ACE8C0098D467047704738
:100500000000000000B587B000BF002001900D483A
:10051000006840F001000B4908600846006800F0E0
:100520000100019000BF00BF012002900020039055
:1005300004900220059002A9034800F009F807B0D2
:1005400000BD0000303802400000024000BFFEE75E
:10055000F8B502460B460025002400200021E1E00A
:10056000012606FA01F51E6806EA0504AC4273D1BD
:100570005E68022E02D05E68122E13D1CF0802F1FF
:10058000200656F827004E07F70E0F26BE40B04350
:100590004F07FF0E1E69BE403043CF0802F1200610
:1005A00046F8270010684F000326BE40B0431E796E
:1005B00006F003064F00BE40304310605E68012E17
:1005C00008D05E68022E05D05E68112E02D05E68EB
:1005D000122E13D190684F000326BE40B0434F0047
:1005E000DE68BE4030439060506801268E40B043C4
:1005F0001E79C6F300168E4030435060D0684F001D
:100600000326BE40B0434F009E68BE403043D060DA
:100610005E6806F08056B6F1805FA8D100BF002664
:100620000096424E366846F48046404F3E603E4655
:10063000366806F48046009600BF00BF3C4E8F0827
:1006400056F827008E07370F0F26BE40B043394EAD
:10065000B24202D1002629E063E0374EB24201D116
:10066000012623E0354EB24201D102261EE0344E6F
:10067000B24201D1032619E0324EB24201D1042622
:1006800014E0314EB24201D105260FE02F4EB242A6
:1006900001D106260AE02E4EB24201D1072605E01E
:1006A0002C4EB24201D1082600E009268F073F0FE9
:1006B000BE4030431E4E8F0846F82700264E306855
:1006C000A0435E6806F48036B6F5803F00D1204333
:1006D000214E3060361D3068A0435E6806F4003657
:1006E000B6F5003F00D120431B4E361D3060361D4D
:1006F0003068A0435E6806F48016B6F5801F00D10E
:100700002043154E08363060361D3068A0435E68C1
:1007100006F40016B6F5001F00D120430E4E0C362D
:100720003060491C1029FFF41BAFF8BD443802406B
:100730000838014000000240000402400008024066
:10074000000C024000100240001402400018024059
:10075000001C024000200240003C01400246136998
:100760000B400BB1012000E0002070470AB181610D
:1007700001E00B0483617047014800687047000086
:100780004C0000202DE9F8430446894615461E46D4
:10079000DDF820800027FFF7EFFF074694F83D00C3
:1007A00020287DD1192301224B492046009700F0D3
:1007B000D0FF10B10220BDE8F88300BF94F83C00E0
:1007C000012801D10220F6E7012084F83C0000BF97
:1007D0002068006820F4006021680860212084F807
:1007E0003D00102084F83E00002020643B48E06279
:1007F0003B4642464946204600F020FF80B1206C2F
:10080000042806D100BF002084F83C0000BF01206E
:10081000D1E700BF002084F83C0000BF0320CAE7F6
:1008200000BF002000902068406900902068806927
:10083000009000BF00BF39E03A464146204601F033
:100840001AF860B1206C042807D12068006840F4D1
:100850000070216808600120ADE70320ABE715F8C0
:10086000010B21680861701E86B220684069C0F3E0
:10087000800030B12EB115F8010B21680861701E9F
:1008800086B23A464146204600F038FF70B1206CEF
:10089000042809D12068006840F40070216800E055
:1008A00017E00860012086E7032084E7002EC3D10B
:1008B0002068006840F4007021680860202084F8F7
:1008C0003D00002084F83E0000BF84F83C0000BFDB
:1008D00071E702206FE70000020010000000FFFF38
:1008E00010B50D48006840F400700B4908600846D8
:1008F000006840F4806008600846006840F480703A
:100900000860032000F05EF80F2000F007F800F008
:1009100019F8002010BD0000003C024070B50446EC
:10092000074800684FF47A71B0FBF1F5284600F0F3
:1009300050FE00222146501E00F005F8002070BD38
:100940002800002070472DE9F05F80460D461646CE
:10095000002701F065FA074639462A46334601F07A
:100960000700C0F1070ABAF1040F02D94FF0040AD8
:1009700001E0C0F1070AD14600F1040ABAF1070FFD
:1009800002D24FF0000A01E0A0F1030AD4464FF072
:10099000010A0AFA09FAAAF1010A0AEA020A0AFA9B
:1009A0000CFA4FF0010B0BFA0CFBABF1010B0BEA4D
:1009B000030B4AEA0B042146404601F039FABDE830
:1009C000F09F000000BF00F00702064B19684FF6C9
:1009D000FF031940044B0B4343EA0221014B19600A
:1009E00000BF70470CED00E00000FA0570B504464A
:1009F0000D4600266D48006800F00F00A84209D29D
:100A00006A490D700846006800F00F00A84201D046
:100A1000012070BD207800F00200022807D1644850
:100A2000006820F0F000A168084361490860207860
:100A300000F00100002877D06068012807D15C48E9
:100A400008380068C0F34040B8B90120E1E76068A9
:100A5000022802D06068032807D15548083800688A
:100A6000C0F3406048B90120D3E751480838006816
:100A7000C0F3400008B90120CBE74D48006820F0E2
:100A80000300616808434A490860FFF775FE06469F
:100A90006068012810D108E0FFF76EFE801B41F26C
:100AA0008831884201D90320B3E74148006800F04B
:100AB0000C000428F0D137E06068022810D108E06B
:100AC000FFF75AFE801B41F28831884201D903208A
:100AD0009FE73748006800F00C000828F0D123E0B9
:100AE0006068032810D108E0FFF746FE801B41F242
:100AF0008831884201D903208BE72D48006800F037
:100B00000C000C28F0D10FE008E0FFF735FE801B49
:100B100041F28831884201D903207AE724480068ED
:100B200000F00C000028F0D12048006800F00F0011
:100B3000A84209D91D490D700846006800F00F0051
:100B4000A84201D0012064E7207800F004000428C6
:100B500007D11748006820F4E050E16808431449C1
:100B60000860207800F00800082808D110480068C4
:100B700020F46040216940EAC1000D49086000F09E
:100B80001DF80B49096801F0F001F02292FAA2F277
:100B9000B2FA82F2D140074A515CC8400649086067
:100BA0000F20FFF7BBFE002033E70000003C0240AF
:100BB000083802404C3700082800002070B500219A
:100BC000002200230020274C246804F00C0424B1E8
:100BD000042C04D0082C41D103E0234840E02348F2
:100BE0003EE0204C241F246804F03F011D4C241FCC
:100BF000246804F4800484B11C4CB4FBF1F5194C56
:100C0000241F246847F6C076344096FAA6F6B6FA52
:100C100086F6F44005FB04F20FE0134CB4FBF1F54B
:100C2000104C241F246847F6C076344096FAA6F686
:100C3000B6FA86F6F44005FB04F20A4C241F246839
:100C400004F440344FF4403595FAA5F5B5FA85F52E
:100C5000EC40641C6300B2FBF3F001E0024800BF0B
:100C600000BF70BD083802400024F40040787D01C8
:100C700038B504460025207800F0010000284CD04B
:100C8000E048006800F00C0004280DD0DD48006842
:100C900000F00C00082811D1DA48001F006800F4A9
:100CA0008000B0F5800F09D1D64808380068C0F33D
:100CB000404090B3606880BB012038BD2079D149A5
:100CC000891F08706068A0B1FFF756FD054608E06F
:100CD000FFF752FD401B41F28831884201D90320C1
:100CE000EBE7C84808380068C0F340400028EFD060
:100CF00013E0FFF741FD054608E0FFF73DFD401B0F
:100D000041F28831884201D90320D6E7BD4808382E
:100D10000068C0F340400028EFD1207800F00200C6
:100D2000022869D1B748006800F00C0058B1B548F6
:100D3000006800F00C00082821D1B248001F0068AC
:100D400000F48000D8B9AF4808380068C0F340000C
:100D500020B1E068012801D00120AEE7A948083899
:100D6000006820F0F800F82292FAA2F2B2FA82F2B9
:100D7000216991400843A349083908603CE0E068D4
:100D800028B30120A0490860FFF7F6FC054606E0FD
:100D9000FFF7F2FC401B022801D903208DE7994898
:100DA00008380068C0F340000028F1D095480838A2
:100DB000006820F0F800F82292FAA2F2B2FA82F269
:100DC0002169914008438F490839086014E00020E8
:100DD0008D490860FFF7D0FC054606E0FFF7CCFC24
:100DE000401B022801D9032067E7864808380068BD
:100DF000C0F340000028F1D1207800F00800082856
:100E00002CD16069A8B1012080490860FFF7B4FCCB
:100E1000054606E0FFF7B0FC401B022801D903207D
:100E20004BE778486C300068C0F340000028F1D0F0
:100E300014E0002075490860FFF79EFC054606E0B7
:100E4000FFF79AFC401B022801D9032035E76D48C3
:100E50006C300068C0F340000028F1D1207800F029
:100E60000400042857D100BF0020009065483830A6
:100E7000006840F0805063493831086008460068D7
:100E800000F08050009000BF00BF6148006840F44F
:100E900080705F490860FFF76FFC054606E0FFF7CA
:100EA0006BFC401B022801D9032006E75848006864
:100EB00000F480700028F2D0207A5249683108701E
:100EC000A068A0B1FFF758FC054608E0FFF754FC06
:100ED000401B41F28831884201D90320EDE64948A0
:100EE00068300068C0F340000028EFD013E0FFF73F
:100EF00043FC054608E0FFF73FFC401B41F2883108
:100F0000884201D90320D8E63E4868300068C0F323
:100F100040000028EFD1A069F0B33A48006800F023
:100F20000C00082869D0A069022850D10020364959
:100F30000866FFF721FC054606E0FFF71DFC401B95
:100F4000022801D90320B8E62E4808380068C0F30B
:100F500040600028F1D1D4E90701084347F6C07288
:100F600092FAA2F2B2FA82F2616A91400843012237
:100F7000A16AC2EB51014FF4403292FAA2F2B2FAE6
:100F800082F2914008434FF0706292FAA2F2B2FAF4
:100F900082F2E16A914000E031E008431949091FFB
:100FA0000860012018490866FFF7E6FB054606E0E1
:100FB000FFF7E2FB401B022801D903207DE6114820
:100FC00008380068C0F340600028F1D017E0002026
:100FD0000D490866FFF7D0FB054606E0FFF7CCFB9E
:100FE000401B022801D9032067E60648083800683C
:100FF000C0F340600028F1D101E001205DE600204F
:101000005BE600000838024000004742800E47427D
:101010000070004010B504460CB9012010BD606A94
:1010200000B900BF0021A16294F8510028B9002046
:1010300084F85000204600F033F8022084F8510074
:101040002068006820F0400021680860D4E90101B0
:101050000843E16808432169084361690843218B1B
:1010600001F400710843E1690843216A0843A16A59
:101070000843216808600421A06901EA1040616A00
:101080000843216848602068C06920F40060216836
:10109000C86100206065012084F851000020BDE790
:1010A00070472DE9F84304460D4617461E464FF09B
:1010B0000008C1466068B0F5827F0DD1A06858B9BC
:1010C000042084F851003B462A46294620460096D3
:1010D00000F070F9BDE8F88300BF94F850000128D3
:1010E00001D10220F6E7012084F8500000BFFFF78D
:1010F00043FB804694F85100012802D04FF00209CA
:101100007BE005B117B94FF0010976E0042084F8BF
:10111000510000206065A563A787E7872063A0864C
:10112000E08620646064A068B0F5004F05D12068B7
:10113000006820F48040216808602068006800F0A2
:101140004000402805D02068006840F04000216839
:101150000860E068E8B918E02068806800F00100E5
:1011600038B12068007B28706D1CE08F401EE0873E
:101170000BE03EB1701C40B1FFF7FEFAA0EB080097
:10118000B04202D34FF0030937E0E08F0028E3D1EB
:101190001CE018E02068806800F0010038B1206889
:1011A000C0682880AD1CE08F401EE0870BE03EB198
:1011B000701C40B1FFF7E0FAA0EB0800B04202D388
:1011C0004FF0030919E0E08F0028E3D16068B0F523
:1011D000827F0DD1A068B0F5004F03D0A068B0F5B4
:1011E000806F05D12068006820F040002168086009
:1011F000606D08B14FF0010900BF012084F8510073
:1012000000BF002084F8500000BF484662E72DE987
:10121000F84304460D4617461E464FF00008C146E7
:1012200000BF94F85000012802D10220BDE8F883E5
:10123000012084F8500000BFFFF79EFA804694F822
:101240005100012802D04FF00209A9E005B117B9F9
:101250004FF00109A4E0032084F8510000206065EC
:101260002563A786E786A063A087E0876064206483
:10127000A068B0F5004F05D12068006840F48040B8
:10128000216808602068006800F04000402805D010
:101290002068006840F0400021680860E068B0F510
:1012A000006F2AD1606810B1E08E012806D128882D
:1012B0002168C860AD1CE08E401EE08619E0206801
:1012C000806800F00200022807D128882168C860E1
:1012D000AD1CE08E401EE0860BE03EB1701C40B1BC
:1012E000FFF74AFAA0EB0800B04202D34FF003091F
:1012F00056E0E08E0028E2D129E0606810B1E08E6F
:10130000012806D12878216808736D1CE08E401EE4
:10131000E08619E02068806800F00200022807D10A
:101320002878216808736D1CE08E401EE0860BE073
:101330003EB1701C40B1FFF71FFAA0EB0800B042AD
:1013400002D34FF003092BE0E08E0028E2D13346B0
:10135000012202212046CDF8008000F0E3FB10B10D
:101360004FF003091CE042463146204600F0C6FB20
:1013700020B14FF001092020606511E0A06850B94C
:1013800000BF002000902068C0680090206880683E
:10139000009000BF00BF606D08B14FF0010900BFB1
:1013A000012084F8510000BF002084F8500000BFE5
:1013B00048463BE72DE9FE4F04460D4616461F46BC
:1013C000DDF830804FF0000A0020029081464FF097
:1013D000010B019000BF94F85000012802D10220B7
:1013E000BDE8FE8F012084F8500000BFFFF7C4F96C
:1013F000814694F851A060680290BAF1010F0BD0B9
:101400000298B0F5827F04D1A06810B9BAF1040F38
:1014100002D002200190D2E00DB106B117B901202F
:101420000190CCE094F85100012802D1052084F805
:10143000510000206065A663E787A7872563E786DC
:10144000A786206460642068006800F0400040289F
:1014500005D02068006840F0400021680860E0681E
:10146000B0F5006F43D1606810B1E08E012806D15D
:1014700028882168C860AD1CE08E401EE0862FE001
:10148000BBF1000F10D0E08E70B12068806800F0D2
:101490000200022808D128882168C860AD1CE08EAF
:1014A000401EE0864FF0000BE08F68B12068806836
:1014B00000F0010040B12068C0683080B61CE08FA9
:1014C000401EE0874FF0010B08F1010040B1FFF72B
:1014D00053F9A0EB0900404502D3032001906EE0D0
:1014E000E08E0028CCD1E08F0028C9D142E06068AE
:1014F00010B1E08E012806D12878216808736D1C90
:10150000E08E401EE0862FE0BBF1000F10D0E08E91
:1015100070B12068806800F00200022808D115F838
:10152000010B21680873E08E401EE0864FF0000B2F
:10153000E08F68B12068806800F0010040B1206849
:10154000C06806F8010BE08F401EE0874FF0010BEA
:1015500008F1010040B1FFF70FF9A0EB0900404589
:1015600002D3032001902AE0E08E0028CCD1E08F46
:101570000028C9D14346012202212046CDF800901F
:1015800000F0D0FA10B10320019018E04A4641461D
:10159000204600F0B3FA20B10120019020206065C0
:1015A0000DE0A06850B900BF002000902068C0681E
:1015B000009020688068009000BF00BF00BF01203D
:1015C00084F8510000BF002084F8500000BF01984B
:1015D00006E770B504462546681EB0F1807F01D34A
:1015E00001200FE0681E4FF0E02148610F214FF00D
:1015F000FF3000F01DFC00204FF0E0218861072043
:101600000861002070BD014608684069C0F3802071
:1016100088B16FF480600A6850610420086400207B
:101620000863202081F83D0000BF002081F83C00C5
:1016300000BF012070470020FCE700002DE9F843BF
:1016400004460D4617469846E66A042E04D0012E3D
:1016500002D016F5803F06D12068006840F4807003
:101660002168086008E0206B122805D12068006816
:1016700040F48070216808603B4600224FF0011161
:101680002046CDF8008000F064F810B10320BDE8DA
:10169000F8832069B0F5804F04D105F0FE00216881
:1016A000086117E005F44070F02141EAE01021687C
:1016B000086143463A461049204600F086F830B1AA
:1016C000206C042801D10120E1E70320DFE7E8B224
:1016D0002168086143463A460749891F204600F0C1
:1016E00074F830B1206C042801D10120CFE7032029
:1016F000CDE70020CBE700000800010070B50446EC
:101700000D4616461DE02046FFF77DFF08B101207B
:1017100070BD681CA8B125B1FFF72EF8801BA84248
:101720000FD9206C40F0200020640020206320208E
:1017300084F83D0000BF002084F83C0000BF032077
:10174000E6E720684069C0F380000028DBD0002075
:10175000DEE72DE9F04104460D4617461E46DDF84A
:10176000188015E0701C98B12EB1FFF705F8A0EBBA
:101770000800B0420CD900202063202084F83D00EE
:1017800000BF002084F83C0000BF0320BDE8F081CA
:10179000C5F3074001280AD120684069A9B2084072
:1017A000A9B2884201D101200BE0002009E02068A5
:1017B0008069A9B20840A9B2884201D1012000E0A5
:1017C0000020B842CED00020E0E72DE9F0410446E9
:1017D0000D4616461F4631E020684069C0F3802060
:1017E000C0B12068006840F40070216808606FF4A0
:1017F000806021684861042020640020206320204C
:1018000084F83D0000BF002084F83C0000BF0120A8
:10181000BDE8F081701C88B126B1FEF7ADFFC01B9A
:10182000B0420BD900202063202084F83D0000BF87
:10183000002084F83C0000BF0320E9E7C5F307401F
:1018400001280AD120684069A9B20840A9B288429B
:1018500001D101200BE0002009E020688069A9B2D5
:101860000840A9B2884201D1012000E000200028F0
:10187000B2D00020CCE770B504460D4616461DE0F8
:101880002046FFF7C0FE08B1012070BD681CA8B15A
:1018900025B1FEF771FF801BA8420FD9206C40F0E4
:1018A0002000206400202063202084F83D0000BF39
:1018B000002084F83C0000BF0320E6E72068406970
:1018C000C0F3C0100028DBD00020DEE710B50021F7
:1018D0000C4800F003FD0C4908600846006810B988
:1018E0004FF0FF3010BD0021084800F0F7FC084918
:1018F00008600846006810B94FF0FF30F2E700209A
:10190000F0E70000B436000800000020C4360008EC
:101910000400002000B5ABB03622454915A8FEF7FB
:101920008EFD4348C08EADF88A004148816B2391FB
:10193000808FADF890003E48C08FADF89200112224
:101940003B49403125A8FEF77AFD394890F851000F
:101950008DF8A5003648406D2A902020832148222A
:10196000CDE9121019A96846FEF769FD15A80FC840
:1019700000F03AFA36222E4915A8FEF760FD2C48F1
:10198000C08EADF88A002A48816B2391808FADF814
:1019900090002748C08FADF89200112224494031B1
:1019A00025A8FEF74CFD224890F851008DF8A500BF
:1019B0001F48406D2A90242020214822CDE9121092
:1019C00019A96846FEF73BFD15A80FC800F00CFAF0
:1019D0003622174915A8FEF732FD1548C08EADF81E
:1019E0008A001348816B2391808FADF890001048D6
:1019F000C08FADF8920011220D49403125A8FEF7A5
:101A00001EFD0B4890F851008DF8A5000848406D68
:101A10002A902320C8214822CDE9121019A968462E
:101A2000FEF70DFD15A80FC800F0DEF92BB000BDC4
:101A30006400002000B58BB000BF00200090134868
:101A4000006840F00800114908600846006800F08E
:101A50000800009000BF00BF4FF4704006900120C6
:101A6000079002200890099006A90948FEF770FD2A
:101A7000102001900120029002200390049001A9FF
:101A80000448FEF765FD0BB000BD00003038024091
:101A9000000C02400000024070B504460D46A1B2A1
:101AA0002A460248FEF762FE70BD0000000C0240AC
:101AB0000FB438B5002000904FF400200E49886123
:101AC0009DF8680040F080001A904FF47A7301226C
:101AD0001AA904A8FFF79BFB4FF47A730122694609
:101AE00004A8FFF7DEFA08200349886112980478F9
:101AF000204638BC5DF814FB00100240F8B50446DF
:101B00000D4616462B46002280212046009600F006
:101B100009F828B1606D40F0200060650320F8BD31
:101B20000020FCE72DE9F04104460E4617461D460D
:101B3000DDF818803FE0681CE0B32DB1FEF71CFE15
:101B4000A0EB0800A84236D32068406820F0E000EF
:101B5000216848606068B0F5827F0DD1A068B0F55B
:101B6000004F03D0A068B0F5806F05D120680068F1
:101B700020F0400021680860A06AB0F5005F0ED137
:101B800000BF206800684DF6FF71084021680860BA
:101B90002068006840F400502168086000BF012000
:101BA00084F8510000BF002084F8500000BF0320DB
:101BB000BDE8F081FFE7206880683040B04201D185
:101BC000012000E00020B842B5D10020F0E700007D
:101BD0007CB504460D468DF804408DF8055000266E
:101BE0004FF47A60022301AA942100900148FEF785
:101BF000C9FD7CBDBC00002000B58FB03D48006829
:101C000040F480503B4908603B483C4908604FF431
:101C1000827048604FF40071384881610021816012
:101C2000C160022101610121416100210162202185
:101C3000C161FFF7EFF92F481438006840F0010048
:101C40002C4914390860F0200A9005200E900220DB
:101C50000B900D9000200C900AA92948FEF778FC03
:101C600024481438006840F01000224914390860F4
:101C7000082005900120069002200890012007907E
:101C800005A92048FEF764FC012000901E48019041
:101C90000220039069461B48FEF75AFC08201949A8
:101CA000886116480068006840F0400013490968E0
:101CB000086010481438006840F008000D491439D5
:101CC00008601248006840F08040104908600846EB
:101CD000006840F0805008600846006840F080606E
:101CE00008600846006840F080700860FFF712FE48
:101CF0000FB000BD443802400030014064000020B5
:101D0000000002400010024000001110000C0240D0
:101D100000B593B000BF002001902448006840F057
:101D20008050224908600846006800F08050019009
:101D300000BF00BF00BF002001901D48006840F4B4
:101D400080401B4908600846006800F4804001900C
:101D500000BF00BF012002900390022008904105BF
:101D6000099108210A914FF4A8710B9102210C915D
:101D700007210D9102A8FEF77BFF08B1FEF7E6FBF5
:101D80000F200E9002200F90002010904FF4A050D2
:101D900011904FF48050129005210EA8FEF726FEF8
:101DA00008B1FEF7D3FB13B000BD0000403802407D
:101DB000007000400A48006840F47000084908605C
:101DC0000848006840F00100064908600020054905
:101DD0000831086008060249803908607047000031
:101DE00088ED00E0003802400FB410B54FF4002039
:101DF0000A4988614FF47A73012219A902A8FFF7F2
:101E000006FA4FF47A73012218A902A8FFF7FFF926
:101E100008200249886110BC5DF814FB00100240E4
:101E200002480068C0F30220704700000CED00E09B
:101E300010B5002804DB0A07130E054A135406E008
:101E40000A07140E034A00F00F031B1FD45410BDE1
:101E500000E400E018ED00E010B5002A06DA22F0F8
:101E60000042D21D22F00703102203E0D21C22F010
:101E700003030C2213B19C188C4201D9012010BD20
:101E8000024401448360C0E90021C91AD018884285
:101E900002D810600246F9E70020106010BD000073
:101EA00005490978002905D000684FF6FF71DFF871
:101EB0000CC000DF704700003D000020112A000820
:101EC00004490978002903D00068DFF80CC000DF5E
:101ED000704700003D000020392900085BE02E48D3
:101EE00000780F281DD171211C20FFF771FE012100
:101EF000C803FFF7D1FD01F081FA642000F08EF9EC
:101F000000211C20FFF764FE00214FF40040FFF782
:101F1000C3FD01F073FA642000F080F901F06EFA5D
:101F200039E01D480078102835D101214002FFF723
:101F3000B3FD0121C803FFF7AFFD642000F06EF987
:101F400000214FF40040FFF7A7FD642000F066F980
:101F50000121C803FFF7A0FD642000F05FF9002114
:101F60004FF40050FFF798FD00214FF40040FFF7B9
:101F700093FD642000F052F90121C803FFF78CFDA6
:101F8000642000F04BF900214FF40040FFF784FD7E
:101F9000642000F043F9A2E70E00002007E00121D1
:101FA0000348FEF7DBFB012801D102490870F6E780
:101FB000000002400C00002008480068C0010BD55A
:101FC00007480068C00707D0054880380068002827
:101FD00002DA04490120087070470000FCED00E0BF
:101FE000800E00E0600000204FF06042D36F002BB5
:101FF000FCD0036BD367D36F002BFCD0C07840EAD2
:102000000120A2F87C0070474FF06041CA6F002A9F
:10201000FCD081F87C0070470EB5802200B109B178
:1020200010460AE001780129FAD101A900F020F850
:10203000042801D0002000E01020DDE9011203B0E7
:1020400000BD70B50D46040003D012B920780128F8
:1020500001D0802070BD204600F068FB28B12946E1
:10206000204600F030F8002070BD812070BD0000D7
:1020700010B504468089002824D0608904EB8000D4
:1020800000690860606840B16078022805D10021CD
:10209000204600F03FFD00F02DFD04F10C0000BFD4
:1020A000D0E85F1F491E8AB2C0E8512F0029F7D13E
:1020B0006089401C80B26081E189884201D10020A2
:1020C0006081042010BD10B500F024FDBDE8104073
:1020D00000F010BD00F0AEF8FEF702FCFFF718FEAE
:1020E000FFF78AFDFFF7A6FCFEF70CFAFFF7EEFB01
:1020F00000F0B2F803E04FF47A7000F08FF8FAE7DE
:1021000000247CE001210803FFF7C6FC0121C8037D
:10211000FFF7C2FC3A480078012870D10021000383
:10212000FFF7BAFC01214803FFF7B6FC4FF4FA6051
:1021300000F074F800214FF40050FFF7ADFC0121CE
:102140008803FFF7A9FC4FF47A7000F067F80F20BE
:102150002C49087000212C4800F0C0F82B49086079
:1021600001202B49087000241DE0022C02DA002017
:10217000284908702748007801280ED10F2C0CDA66
:1021800025480078012808D100202349087004F16F
:102190000A00C4B200201F4908704FF47A7000F0A2
:1021A0003DF8601CC4B2192CDFDB01201A4908700D
:1021B00000201749087000214FF48040FFF76CFCA5
:1021C00010201049087041F2883000F027F80F48BD
:1021D000006800F0A7F800214FF40050FFF75CFC06
:1021E0000121C803FFF758FC01210803FFF754FC45
:1021F00000200349087043F6982000F00FF881E7AB
:102200000C0000200E000020D4360008080000203A
:102210000D0000200F00002010000020EFF30581CA
:1022200009B182207047DFF808C000DF7047000066
:1022300099310008EFF3058008B182207047EFF371
:102240001480C00703D0DFF80CC000DF704700F037
:10225000ADBF0000AD31000888B0EFF3058010B1CC
:10226000822008B07047EFF3148010F00301134888
:1022700006D001291BD0022911D0032919D113E05E
:1022800008A981F309880078C0070BD05FF002002D
:1022900080F31488BFF34F8FBFF36F8F09E000788E
:1022A000C00706D10320F3E70078C00701D0FF2064
:1022B000D7E7DFF80CC000DFD3E70000FC360008EA
:1022C0001D320008EFF305820AB1FFF7A5BEDFF863
:1022D00008C000DF7047000089320008EFF3058274
:1022E0000AB100207047EFF31482064B02F001029E
:1022F0005B781A4303D0DFF810C000DF704700F0AE
:10230000E1BF00003C000020C5320008DFF80CC02F
:1023100000DFDFF80CC000DFFEE700003533000807
:1023200051330008EFF3058109B182207047DFF8CF
:1023300008C000DF7047000051330008DFF804C018
:1023400000DF704789330008094C4FF0FF352946FC
:102350002068FFF7B7FF02460846102AF7D1FFF7BB
:10236000EDFF0028F3D0024608469047EFE7000053
:1023700018000020012806D0022805D0032804D028
:10238000042804D102E003E002E001E000E000BF25
:1023900000BF00BFFEE700BFFEE70000074801687E
:1023A0004FF0E02041610021816107210161044873
:1023B000016841F07F41016040177047F83600081E
:1023C00020ED00E0704750E8001F31B10B6840E895
:1023D0000032002AF7D108467047BFF32F8FFAE783
:1023E00010B568B161B10B3121F003020168446896
:1023F0000B1A1B1B934205D2084609680029F5D128
:10240000002010BD210007D021180368C1E9003267
:10241000016001F1080010BD4260083010BD0000ED
:1024200070B50D46002812D04FF6FF71084C884257
:1024300004D222680146104600F09AFB20684570DD
:10244000044800F0DDF8BDE8704000F063BC70BDEA
:1024500044000020CCA900200F4810B50D49426867
:102460000E480B680068934204D00A60CB88421E75
:102470001A448A808A8880B282420AD10020086089
:10248000054800F0BDF80146BDE81040024800F0E4
:1024900093BB10BD58000020CCA900204C000020A8
:1024A00070B5194DE86800282CD0A88A401EA88273
:1024B000002621E0A06838B161684160606810B111
:1024C000A16881606660A6600F482146183800F058
:1024D00073FBA08AA8826078042804D10B49E08AA3
:1024E00009880844A08201206070E068E860E06824
:1024F00008B10561E6602661A88A002802D1EC686F
:10250000002CD7D170BD0000E4A900204C000020B1
:1025100070B504000FD00D4DA1780126286882788F
:1025200091420CD900F064FB286846702046BDE853
:10253000704000F0EFBB064800F062F8F7E7667005
:102540002146BDE87040024800F036BB4400002040
:10255000CCA900200321FFF763BF000010B504469B
:10256000008B084320836278618B062A18D0052AE5
:1025700019D1084217D001EA000262838843208300
:10258000204600F06FFB01206070628B082120461E
:1025900000F060FB2146BDE81040034800F00CBB92
:1025A00031EA0002EAD010BDCCA90020814202D35A
:1025B00042688A4201D80120704702680A60BFF36E
:1025C0005F8F50E8003F0A689A42F6D140E8001257
:1025D000002AF2D10020704768B161B100220839A9
:1025E00002E00246006830B18842FAD12AB10068A0
:1025F0001060002070470120704700214160F8E71B
:102600000146406842684A600B780022022B05D0E0
:10261000012B03D0032B01D04260704743680BB1FC
:102620009960426082607047810700D00020704747
:1026300070B5044600201546207001226270A1701A
:1026400084F824106060A060E06020612062A082B5
:10265000E0822083608384F82500E08C18B9054867
:10266000FFF7B1FEE06229462046BDE8704000F069
:102670001DB800005803002008B1082901D201202C
:1026800070470144091F002201600A604260104641
:102690007047000003480021016003490988C18098
:1026A0007047000058000020EC36000870B5C28C5E
:1026B0001C4D930802D12A88C2F38D03C26A02EB33
:1026C0008302540700D5121F4FF0807442E90214B0
:1026D00000242646B2F1400242F82460641C0E2C0D
:1026E000FAD3C4691462826201632968C90014D5EF
:1026F000112B12D94FF0FF31103B11EB53014FF06A
:10270000CC3305D042F8043C42F8083D491EF9D1CB
:10271000C16A121F8A4200D91360C06A024901606F
:1027200070BD0000E8360008A52E5AE2C1898089F4
:10273000081A7047012202700022427082704260C3
:1027400002814281103982818908C181704700006D
:102750002DE9F041044640680E464FF0000804F1B0
:102760000C05E8B36078012701283ED0022813D079
:1027700003285CD10846FFF726FE050057D0204607
:10278000FFF73EFF0446294600F05EFA67702046D8
:1027900000F068FA214621E02046FFF731FF0646A7
:1027A000002100F051FA2189F06904EB81010861F0
:1027B000D5E85F0F401C81B2C5E8501F0028F7D153
:1027C0002089401C80B22081E189884201D1A4F88F
:1027D00008807770304600F045FA3146174800E02F
:1027E0000CE0BDE8F04100F0E7B92046FFF708FF34
:1027F00004463246102100F02DFAC7E7A089E1898E
:10280000884216D2208904EB80000661D5E85F0F6C
:10281000401C81B2C5E8501F0028F7D12089401C18
:1028200080B22081E189884201D1A4F80880BDE806
:10283000F081BDE8F0410320FFF79CBDCCA900204A
:1028400070B50446808915460026C0B3608904EB44
:102850008000006908606089401C80B26081E18965
:10286000884200D16681606810B1607802280BD080
:1028700014F10C04D4E85F0F401E81B2C4E8501F6D
:102880000028F7D1002070BD2046FFF7B9FE0546AD
:10289000002100F0D9F92189E86904EB8101086180
:1028A0002089401C80B22081E189884200D12681A4
:1028B000284600F0D7F92846FFF72AFEE2E7FFE7AF
:1028C0003DB10B48626801682AB1204600F074F9F6
:1028D00008E0012070BD616001684E60006884609E
:1028E0000120607008212846FFF79AFDF1E70000FB
:1028F00044000020002814D0411C13D00C4A4FF68D
:10290000FE7190420CD800EB4002C2EBC0120948A5
:10291000036803EBC202521EB2FBF3F0884204D9F3
:10292000084670474FF6FF70704780B2704700004E
:1029300000093D00083700082DE9F04104464088B1
:1029400020B1314DA1682A68914202D0FF20BDE834
:10295000F081401E0004000C608053D12968086A91
:10296000A04209D1E068086208E0C268A24202D130
:10297000E268C26002E010460028F6D191F8240017
:102980000A6A06E053681BB19B78834200D9184657
:10299000D268002AF6D18870DFF87080616801265D
:1029A00011B32046FFF72CFE0746002100F04CF93A
:1029B000384600F057F96680A760386AE0603C62EC
:1029C0002968D8F804008A788078824201D3384692
:1029D00016E00E4800F0F0F839460C4800F0ECF82C
:1029E000286846707E700AE0D8F804108A78296852
:1029F000824207D9054800F0DFF8286846700020B9
:102A0000FFF786FD0020A2E744000020CCA90020AB
:102A100070B5184D0E4604464188286839B1A16842
:102A2000814209D16088401C6080002070BDA06098
:102A3000016AE1600462F5E776B18A7880788242C3
:102A400003D28870A06800F0DDF8606830B12046DD
:102A5000296800F0B1F808E0012070BD28686060C6
:102A60002968002048602868846009213046FFF703
:102A7000D7FCF1E74400002070B51B480121026833
:102A80005170006800F0B4F8184D6C7818E000BF81
:102A900005EBC40148680278EAB1012A20D000F0B1
:102AA0000DF9E878641C844200D100240F48801C92
:102AB000D0E84F1F491EC9B2C0E8421F002AF7D113
:102AC000A8780028E4D16C700948FFF799FDBDE8AB
:102AD000704000F01FB9098989B2FFF73FFDE0E7B8
:102AE0008968FFF735FEDCE74400002028A40020B9
:102AF000CCA900200548017811B10121417070472F
:102B000003494FF0805008607047000050000020DB
:102B100004ED00E0F0B4154DAB1CEE784FEA05076C
:102B2000D3E84F2FB24202D1BFF32F8F11E0521CD6
:102B3000D4B2C3E8424F002AF2D100BFD7E84F2FEA
:102B4000541CB44200D10024E4B2C7E8434F002B28
:102B5000F4D1EB78934205D905EBC202C2E9010139
:102B6000F0BC7047F0BC0220FFF704BC28A4002092
:102B7000104A10B5D368ABB113469B8A03E08CB101
:102B80002246A48A2344D4688B42F8D3C460D06020
:102B90000261C46804B12061591A8182908A401A86
:102BA000908210BD0024C460D060C91A0261918275
:102BB000848210BDE4A9002030B502780023022AE7
:102BC00003D0012A01D0032A00D101238C7800E030
:102BD0001046426812B19578A542F9D24A60416028
:102BE0001BB102B19160886030BD0020FBE700009E
:102BF00003494A68426000228260486070470000D2
:102C0000CCA9002010B5836804462BB96078012850
:102C10000ED1084B03E09B6818780028FBD02046B3
:102C200000F034F82146BDE810401846FFF7C4BF55
:102C300010BD0000CCA9002090F82510806A09B1D1
:102C4000603070472030704710B50C46FFF7F4FF36
:102C5000046010BD70B515460C46FFF7EDFFC0E9E6
:102C6000004570BD10B5016900290ED0C268CA6068
:102C7000C36800223BB18B8A848A23448B82C36859
:102C80001961C26000E08A82026110BD816839B1B9
:102C900042684A604168002901D0806888607047B6
:102CA000054906E04A68824202D1406848607047A0
:102CB00011460029F6D17047CCA9002010B5416813
:102CC00081B1FFF79DFC0446FFF7CCFF0120607047
:102CD00001462046FFF7B8FF2146BDE810400348F3
:102CE000FFF76ABF4188491C418010BDCCA9002074
:102CF00006480068D0E90A10814203D300680449FD
:102D0000884202D00120FFF735BB70474400002005
:102D1000A52E5AE20749022248604270064A1278FC
:102D2000002A05D006C98A4202D0C078FFF76CB9E4
:102D300070470000440000206000002070B5FFF7DD
:102D40003BF900200446204A204902E042F8204096
:102D5000401C0B889842F9D31D48342201881D4835
:102D6000FFF77AF81C48008880B240F000421B4808
:102D700001681B48FFF770F81A48082201881A48B2
:102D80000068FFF769F8194DFF20194AE870EC84D4
:102D900000212846FFF74CFC1648042101704460CE
:102DA00015480170C46004618482144815490560A7
:102DB000022068701248047044700978C170BDE840
:102DC0007040FFF767BC0000ACA40020E4360008A8
:102DD0001037000810010020E836000814370008FA
:102DE00058030020383700082000002098A9002050
:102DF00097230008CCA90020E4A90020440000206B
:102E000028A400201C3700081B4810B5016841F4B5
:102E10007F01016000684FF07F4101EA0020164900
:102E2000C0431439B0FA80F00968C0F10800C1F35A
:102E30000221814200D3481C0F49091F0B686FF023
:102E40008072824063F317020A60FFF7A7FA0B490A
:102E5000002808600EDB00F1E021FF2281F8002449
:102E600000F01F02012191404009800000F1E020A4
:102E7000C0F8001110BD000020ED00E0540000205B
:102E80000C4810B50268012151700068FFF7B0FED0
:102E9000FFF7E2FA08480168491C0160FFF700FBF0
:102EA00000F07EFA0548FFF7ABFBBDE81040FFF7E6
:102EB00031BF0000440000204C000020CCA90020BD
:102EC000002805D0810702D10178002900D0002018
:102ED0007047000030B50B4C0023626805E0956830
:102EE0008D4204D813461268491B002AF7D10260AC
:102EF000816012B19568691A91600BB1186030BD9C
:102F0000606030BD3C0000202DE9F0411E461746B0
:102F100080460D4611F0FF0F00D14D1C1848FFF7F9
:102F200052FA041E16D0280AE762E084E9B242464B
:102F30002046E661FFF77CFB01251248124905E0B7
:102F400000EB850252F8042C32B16D1C0A889542C0
:102F5000F6D90020BDE8F081002DFAD000EB850005
:102F600040F8044C0948E570007818B1012120466A
:102F7000FFF73AF82046FFF7CBFA2846EAE70000C9
:102F800010010020ACA40020E436000860000020FE
:102F90002DE9F05F584DDFF85891DFF85881296826
:102FA0004FF0010A002618B1CA78AB46824243D1DD
:102FB0004E70FDF74EF929688862FFF799FE286880
:102FC000046A1FE06068C0B12046FFF719FB07469E
:102FD0000021FFF739FE3846FFF744FE87F801A0CD
:102FE00039464648FFF7E8FDE168A4F802A0A7606B
:102FF000386AE0603C620C4604E0E0686680A660E7
:10300000E6600446002CDDD12868C27808EB820116
:1030100041F8046CC16A3A48FFF7C8FA2868C662EA
:1030200099F8001011B10021FEF7DEFF354829683C
:10303000FFF7BCFA2E6056E03349098888420CD865
:1030400008EB800858F8045C3DB12846FFF71EFEE7
:103050002846FFF707FE2C6A22E0FF20BDE8F09F1C
:103060006068C0B12046FFF7CBFA07460021FFF7A2
:10307000EBFD3846FFF7F6FD87F801A039461F48FB
:10308000FFF79AFDE168A4F802A0A760386AE06043
:103090003C620C4604E0E0686680A660E660044698
:1030A000002CDDD148F8046C1548E96AFFF77EFA78
:1030B000EE6299F8000018B100212846FEF794FF4F
:1030C00029461048FFF772FA0C48DBF800104068F8
:1030D0008B7882789A4209D981F801A00748DBF8F9
:1030E0000010FFF769FD0020FFF712FA0020B5E796
:1030F00060000020ACA4002044000020CCA90020E7
:103100005803002010010020E436000870B51A4D65
:1031100080B11A4A128890421FD8194A02EB8000E7
:1031200050F8044CCCB1A17084F824102868A04257
:1031300005D014E028688170286880F824101148B0
:1031400040688078884215D90E482968FFF734FD19
:1031500029680120487000200AE0FF2070BD204649
:10316000FFF750FD6078012804D10648FFF748FAC0
:10317000FFF7CEF9002070BD44000020E4360008BF
:10318000ACA40020CCA9002002480068002800D090
:10319000C07870474400002010B5002804D0FFF725
:1031A000A9FBFFF7D7F9402010BD000010B5134C64
:1031B000207860B91248400705D1124801681048CC
:1031C000FFF75AFA08B1852010BDFFF7B7FD0E4989
:1031D000FF2009688870207858B900210B4800F05A
:1031E00041F80B49086000210A4800F06BF80A49D1
:1031F0000860012020700020607010BD3C0000209D
:103200006873002018370008440000203037000899
:1032100018000020203700081400002070B50F4D62
:10322000687808B1002070BD0D4C206890F824101B
:103230000020FFF76BFF2068C178FF2903D1816A66
:10324000203181F30988616811B960600020206035
:10325000FFF7DAFD01206870E4E700003C00002081
:103260004400002010B5040005D0216819B1606841
:1032700008B102780AB1002010BD8900103189B26E
:10328000FFF758FA606810BD3EB504000D464FF0D8
:10329000800012D0217801290FD12846FFF72AFBA0
:1032A0000246204601A9FFF7CBFA012801D01020E1
:1032B00003E00DB1402000E00020DDE9011203B081
:1032C00030BD000070B50E4604002BD0206848B316
:1032D000B4F9040010F1030F24DB032822DCE168B9
:1032E00029B11148FFF77CF805001BD000E000254C
:1032F000B4F90400E168001D40EA012133462A4682
:103300002068FFF701FE40B1084901EB8000084941
:1033100050F8040C826A516370BD1DB12946024801
:10332000FFF75AF9002070BD68730020ACA400209C
:103330000D23000810B5FFF727FF002804D003492C
:1033400001EB800050F8040C10BD0000ACA400207C
:1033500010B5FFF7B5FD18B1C18C19B1C46A02E010
:10336000802010BD0024C078FFF712FEFF2806D091
:103370001CB121460348FFF72FF9002010BD812022
:1033800010BD00006873002010B5FFF74DF920B1A3
:1033900041690A680169104610BD0020014610BD50
:1033A0002DE9F041134E7468002C1CD0A068124F18
:1033B000401E4FF00108A06012E0254624687460AA
:1033C000002229463868FEF73CFE10B10420FEF7C3
:1033D000D1FF6879012808D085F80480002C02D03C
:1033E000A0680028E9D0BDE8F0812846E968FFF729
:1033F00071FDF3E73C000020180000202DE9F04F9C
:10340000ABB0A648006800F0010000287ED0012083
:10341000A24908603622A24914A8FDF710F8A04876
:10342000C08EADF886009E48816B2291808FADF8EA
:103430008C009B48C08FADF88E0011229849403116
:1034400024A8FCF7FCFF964890F851008DF8A100E5
:103450009348406D29902920482218A91290684667
:10346000FCF7EDFF14A80FC8FEF722FB80463622BA
:103470008B4914A8FCF7E3FF8948C08EADF886009D
:103480008748816B2291808FADF88C008448C08F73
:10349000ADF88E0011228249403124A8FCF7CFFFFD
:1034A0007F4890F851008DF8A1007D48406D29902B
:1034B0002820482218A912906846FCF7C0FF14A8DB
:1034C0000FC8FEF7F5FA83464BEA082004B236220D
:1034D000734914A8FCF7B3FF7148C08EADF886009D
:1034E0006F48816B2291808FADF88C006C48C08F43
:1034F000ADF88E0011226A49403124A8FCF79FFFE5
:10350000674890F851008DF8A10000E0C3E06448DE
:10351000406D29902B20482218A912906846FCF78C
:103520008EFF14A80FC8FEF7C3FA814636225C4905
:1035300014A8FCF784FF5A48C08EADF8860058489E
:10354000816B2291808FADF88C005548C08FADF80B
:103550008E0011225249403124A8FCF770FF5048D8
:1035600090F851008DF8A1004D48406D29902A2017
:10357000482218A912906846FCF761FF14A80FC8EA
:10358000FEF796FA2A902A9840EA092006B23622D7
:10359000434914A8FCF753FF4148C08EADF886009C
:1035A0003F48816B2291808FADF88C003C48C08FE2
:1035B000ADF88E0011223A49403124A8FCF73FFFB4
:1035C000374890F851008DF8A1003548406D29909A
:1035D0002D20482218A912906846FCF730FF14A845
:1035E0000FC8FEF765FA824636222D4914A8FCF76B
:1035F00026FF2B48C08EADF886002948816B2291AA
:10360000808FADF88C002648C08FADF88E00112257
:103610002349403124A8FCF712FF214890F85100BB
:103620008DF8A1001E48406D29902C20482218A931
:1036300012906846FCF703FF14A80FC8FEF738FA8B
:10364000054645EA0A2007B216F5FA7F03DA01209B
:103650001449087005E0B6F5FA7F02DD0120114932
:10366000087014F5FA7F03DA01200E49087005E0AE
:10367000B4F5FA7F02DD01200A49087017F5FA7FD8
:1036800003DA01200749087005E0B7F5FA7F02DD8B
:103690000120044908702BB0BDE8F08F143C0140B4
:1036A000640000200F0000204FF04070E1EE100A8F
:1036B0007047000001210008000000000100000028
:1036C000000000009D1F0008000000000100000035
:1036D00000000000DD1E00080000000001000000E6
:1036E000000000000B0000000010050105000100B3
:1036F000007A030AA80000003F90020001000000C9
:103700000200010051000400E80300000000000076
:103710004802000010700000C030000010000000DF
:10372000492300080200000001000000C80000005A
:1037300004000000D8A4002000000000D5200008EC
:103740000000000001000000001000000000000068
:103750000102030401020304060708097C3700087C
:103760000000002064000000C4010008E0370008E9
:1037700064000020FCAF0000E00100080000000031
:103780000000000000000000000000000100000038
:103790000000000000000000000000000000000029
:1037A000000000000024F400000000000000000001
:1037B00001020304060708090000000000000000E1
:1037C00000000000000000000000000000000000F9
:1037D00000000000000000000000000000000000E9
:040000050800018965
:00000001FF
